:020000040800F2
:10000000D0070020890100086D1E0008651E000849
:10001000691E0008C5030008811E000800000000DA
:10002000000000000000000000000000751E000835
:10003000D503000800000000711E0008791E0008AA
:10004000A3010008A3010008A3010008A301000800
:10005000A3010008A3010008A3010008A3010008F0
:10006000A3010008A3010008A3010008C9030008B8
:10007000A3010008A3010008A3010008A3010008D0
:10008000A3010008A3010008A3010008A3010008C0
:10009000A3010008A3010008A3010008A3010008B0
:1000A000A3010008A3010008A3010008A3010008A0
:1000B000A3010008A3010008A3010008A301000890
:1000C000A3010008A3010008A3010008A301000880
:1000D000A3010008A3010008A3010008A301000870
:1000E000A3010008A3010008A301000800F002F822
:1000F00000F03AF80AA090E8000C82448344AAF188
:100100000107DA4501D100F02FF8AFF2090EBAE885
:100110000F0013F0010F18BFFB1A43F0010318473B
:10012000D8200000F8200000103A24BF78C878C119
:10013000FAD8520724BF30C830C144BF04680C60ED
:10014000704700000023002400250026103A28BF35
:1001500078C1FBD8520728BF30C148BF0B60704739
:100160001FB51FBD10B510BD00F031F81146FFF7E7
:10017000F7FF01F087FE00F04FF803B4FFF7F2FF3E
:1001800003BC00F057F800000948804709480047C1
:10019000FEE7FEE7FEE7FEE7FEE7FEE7FEE7FEE737
:1001A000FEE7FEE704480549054A064B7047000094
:1001B0007D1E0008ED000008D0010020D0070020BF
:1001C000D0030020D0030020704770477047754669
:1001D00000F02CF8AE4605006946534620F00700B3
:1001E000854618B020B5FFF7DDFFBDE820404FF091
:1001F00000064FF000074FF000084FF0000BAC4630
:10020000ACE8C009ACE8C009ACE8C009ACE8C0097A
:1002100021F007018D46704710B50446AFF300800A
:100220002046BDE81040FFF7A8BF00000048704717
:100230001000002001491820ABBEFEE72600020096
:1002400070470000B0B5044600688168C90709D04E
:10025000816821F00101816000F098FF21688968C0
:10026000C90701D10020B0BD054602E08068C00783
:10027000F8D000F08BFF411B20680329F6D381687A
:10028000C907F3D0A06A40F01000A062E06A40F015
:100290000100E0620120B0BD0146406A826A12F0AE
:1002A000500F03D0006A026B084610470168826A4B
:1002B00042F400728262896801F46021B1F5602F16
:1002C00001D1017B11B100F0D5B900BF816A21F4E1
:1002D00080718162816AC90448BF00F0CBB9816A2C
:1002E00041F00101816200F0C5B90000406A816AF5
:1002F00041F040018162C16A41F00401C16200F035
:10030000BDB90000406A00F0B7B90000B0B582B0D6
:1003100004460020019021688A68D2074FD188687E
:1003200040F00100886040F20800C2F2000000685E
:100330004DF68361C4F21B31A0FB0101880C0190D2
:100340000198A0B1019801380190019878B1019805
:1003500001380190019850B101980138019001983D
:1003600028B101980138019001980028EAD100F0E5
:100370000DFF21688968C9071CD1054603E000BF4D
:100380008068C0071AD100F001FF411B20680329D3
:10039000F6D38168C907F3D1A06A40F01000A062CB
:1003A000E06A40F00100E062002084F824000120AF
:1003B00002B0B0BD002002B0B0BD00BF002002B04E
:1003C000B0BD0000FEE7000040F23C10C2F20000A9
:1003D00000F06CBC70470000EFF3108072B600BFF5
:1003E000FEE7000070B582B004460020019094F84A
:1003F0002400012804D10225284602B070BD00BFA8
:10040000012084F824002046FFF71CFF0546002841
:100410006ED1A06A41F2021188430230A06240F21C
:100420000800C2F200000668022000F069FFB6FB77
:10043000F0F0400001900198A8B100BF0198013888
:100440000190019878B1019801380190019850B15C
:10045000019801380190019828B101980138019064
:1004600001980028EAD12046FFF750FF20688168F4
:1004700041F00801816000F089FE216851F8082FE1
:10048000120711D5064602E0816809070AD500F077
:100490007DFE811B20680B29F6D381680907F3D5FF
:1004A0001EE000BF00F10801086840F00400086089
:1004B00000F06CFE21688968490703D401206FF0C1
:1004C000030111E0064602E080684007F6D500F01F
:1004D0005DFE811B20680B29F6D381684907F3D59F
:1004E000012510206FF01201A26A11400843A0629A
:1004F000002084F82400284602B070BDB0B581B059
:100500000022009290F82420012A03D102210846FB
:1005100001B0B0BD4B680122062B80F8242023D8FF
:10052000D0F800C003EB830362465D1F1F2352F81F
:1005300034EF03FA05F40B682EEA040E03FA05F40F
:1005400044EA0E05092B15602DD8DCF8102003EBCA
:100550004303072589689D40AA4399401143CCF87D
:10056000101000213FE000BFD0F800C00C2B624605
:1005700006D852F830EF03EB8303A3F1230405E020
:1005800052F82CEF03EB8303A3F141041F2303FA7A
:1005900004F50B682EEA050E03FA04F444EA0E058E
:1005A000092B1560D1D903EB4305DCF80C201E3D67
:1005B00007248968AC40A243A940114323F00102FB
:1005C000102ACCF80C100DD142F20841C4F20101FE
:1005D000A1F1080294450DD0816A41F020018162A9
:1005E000012100E00021002280F82420084601B00B
:1005F000B0BD00BF0A68120230D40A68102B42F462
:1006000000020A602CD140F20801C2F20001096820
:100610004DF68362C4F21B32A1FB0212910C01EB76
:100620008101490000910099E1B1009901390091DF
:100630000099C9B10099013900910099B1B10099AF
:1006400001390091009999B10099013900910099FF
:1006500000294FF00001E8D1C5E700BF0021C2E743
:100660000021C0E70021BEE70021BCE70021BAE776
:100670000021B8E770470000704700007047000095
:10068000002804BF0120704770B50646044656F89E
:10069000280F28B121688868C0070CD115E000BF79
:1006A0000020E06284F82400204600F09DF82168D4
:1006B0008868C00709D0886820F00100886000F0D1
:1006C00065FD21688A68D20726D13068C0063AD411
:1006D000A06A41F2021290430230A062E069D4E9BC
:1006E000013240EA030C531EB3FA83F35D0913464B
:1006F000B2F5807F18BF2B02207D257B01284CEAB4
:10070000450030D135B3A56A45F02005A562E56AFC
:1007100045F00105E56226E0054602E08868C0076D
:10072000D3D000F033FD401B21680328F6D388683E
:10073000C007F3D0A06A40F01000A062E06A40F069
:100740000100E062A06A306840F0100101203160D1
:1007500070BD00BFD4F818C04EF60005CFF6FF7587
:1007600005EB4C352B434D68B2F5807F25F4694588
:1007700043EA05034B608B684FF2FD75CFF6E175D8
:1007800003EA050343EA00038B6001D0012A07D185
:1007900022690023CFF6F07303EB025201E000BFA1
:1007A0000022CB6A23F470031A43CA62896840F6B8
:1007B000FE62CFF61F721140814207D10020E06235
:1007C000A16A012262F30101316070BDA06A40F0AC
:1007D000100020F00200A06254F82C0F40F001013C
:1007E00001202646316070BD70B586B0044640F6E3
:1007F0000000C4F20100216800F5E0520026914299
:100800000596049602D006B070BD00BF41F21801F3
:10081000C4F202010A6842F400720A600A6802F433
:1008200000720192019A0A6842F004020A600968A3
:1008300001F0040101910199E0210291032103914A
:1008400002A900F095FB40F23C150820C2F2000519
:10085000C4F202004FF40072C5E9000605F1100071
:1008600080214FF400634FF0200C80E80C102846E4
:10087000C5E90261EE6100F0F1FA002818BFFFF748
:10088000ABFD25626C6206B070BD000070B5154608
:100890000446006842F60002C4F2010290420E468D
:1008A00005D042F20041C4F20101884209D142F26E
:1008B0000440C4F20100006810F4702F1CBF012036
:1008C00070BD94F82400012804BF022070BD0120EF
:1008D00084F824002046FFF719FD18B1002184F8A0
:1008E000241070BD42F204402168A26AC4F20100E3
:1008F00040F601739A4300F57F7302F580729942C6
:10090000A26243D0A06A20F48010A062486840052B
:1009100004D5A06A012262F30D30A062A26A002011
:10092000D2044FF0000244BFE26A22F00602E26203
:1009300084F82400206A40F29922C0F6000240F2B6
:10094000053340F2ED2C00F1280EC0F60003C0F68E
:10095000000C8EE80C106FF002020A608A682B46C9
:1009600042F480728A604C31324600F0B3FA20685B
:10097000816801F460228168B2F5602F0CBF41F4F8
:10098000A00141F480118160002070BD026812F462
:10099000702FB7D0A26A42F48012A26200684005AC
:1009A000BCD5B6E790F82020013A012A08D80068A3
:1009B00000F114020020136819431160704700BF52
:1009C00000F1240201204FF48021136819431160C3
:1009D00070470000B0B5026890F82030013B012B51
:1009E00028D8D2F80002012340F00100C2F800022A
:1009F000D1F814E0CC690EF01F0003FA00F0D2F831
:100A00001C326FEA000C8343012CC2F81C3217D051
:100A10006CBBD2F80C3203EA0C03C2F80C32CB6880
:100A20008C8844EA034302EBCE04C4F840320B4600
:100A300015E000BF416A41F4802141620120B0BD50
:100A4000D2F80C320343C2F80C320B688C8844EAAB
:100A5000034302EBCE04C4F8403201F10C038C686E
:100A60001B8843EA044302EBCE04C4F84432D2F8B4
:100A700004328D6943EA0004D1F810E0096A002DC0
:100A800008BF03EA0C04C2F80442D2F81432BEF1E3
:100A9000000F43EA000408BF03EA0C040129C2F86E
:100AA000144204D1D2F81C120843C2F81C02D2F836
:100AB000000220F00100C2F800020020B0BD0000DA
:100AC000B0B5C8B1044690F8200010B9204600F037
:100AD00071F82068016841F00101016000F056FBE7
:100AE000054600BF20684168C90707D100F04EFBEA
:100AF000401B0B28F6D312E00120B0BD016821F0A5
:100B00000201016000F042FB054600BF2068416819
:100B100089070DD500F03AFB401B0B28F6D3606A1D
:100B2000052140F400306062012084F82010B0BD3F
:100B3000217E0268012922F0800208BF8032026013
:100B4000617E0268012922F0400208BF4032026043
:100B5000A17E0268012922F0200208BF2032026033
:100B6000E17E0268012922F0100218BF10320260F3
:100B7000217F0268012922F0080208BF08320260C2
:100B8000617F0268012922F0040208BF043202607A
:100B9000D4E901C2D4E9033561691A432A431143F8
:100BA000ACF101021143C16100200121606284F8AF
:100BB0002010B0BDB0B586B0006846F20042C4F265
:100BC000000200219042059102D006B0B0BD00BFE6
:100BD00041F21800C4F20200426840F6004442F0BC
:100BE000007242604268C4F2010402F00072019295
:100BF000019A026802AD42F008020260006800F04B
:100C00000800019001984FF48070CDE90201049131
:100C10002046294600F0ACF94FF400700290022003
:100C20000390032005902046294600F0A1F90420F6
:100C3000C4F20100016849F6FF72CFF6FF021140CD
:100C400041F0E06141F48041016006B0B0BD0000B8
:100C5000B0B5044690F8200001281DD1022084F888
:100C600020002068016821F00101016000F08EFA87
:100C7000054600BF20684068C00713D000F086FA20
:100C8000401B0B28F6D3606A40F4003060620520F8
:100C900084F820000120B0BD606A40F4002060624A
:100CA0000120B0BD00206062B0BD000010B5016839
:100CB000D0E90FCEDCF800200B685C072CD50424AB
:100CC00004FA0EF4144027D00A68920603D40A6886
:100CD00022F004020A602F22C4F20202914240F282
:100CE0000402C4F202025FDD3023C4F2020399421F
:100CF00076D04423C4F20203994277D05823C4F239
:100D00000203994240F07E804FF480231360C16A51
:100D1000002940F082809FE09C0729D5022404FA34
:100D20000EF4144024D00A68920606D40A6822F011
:100D30000A020A60012280F821202F22C4F2020256
:100D4000914240F20402C4F202023DDD3023C4F2BB
:100D50000203994264D04423C4F20203994263D04F
:100D60005823C4F20203994264D14FF4003369E07E
:100D70001B0771D5082303FA0EF31A4008BF10BDF4
:100D80000A6822F00E020A60012101FA0EF2CCF884
:100D900004208163016B4FF48072002902845BD0D0
:100DA000BDE81040084700BF0823C4F2020399427F
:100DB00022D01C23C4F20203994223D140231360A2
:100DC000C16A51BB48E000BF0823C4F20203994244
:100DD0002ED01C23C4F2020399422BD1202331E0F0
:100DE0004FF480631360C16AB9B935E04FF48043B2
:100DF0001360C16A89B92FE004231360C16A61B925
:100E00002AE000BF02F168044FF08063A14208BFEE
:100E10004FF480031360C16AF1B1BDE81040084788
:100E20004FF400730EE000BF4FF400530AE000BF20
:100E3000022307E002F168044FF00073A14208BFEB
:100E40004FF400131360816A002280F8202019B14A
:100E5000BDE81040084700BF10BD0000002804BFD7
:100E6000012070472DE9F04101684FF6F872CBF68A
:100E7000FD724CF6CD430A44CCF6CC43A2FB0323CF
:100E80006FF0030707EA93030027C4F2020700F19B
:100E9000040E00F11008C0E90F739EE8045098E8B2
:100EA00070010B6843F6F077BB431A4342EA0C0229
:100EB00042EA0E0222432A43324342EA08020A600F
:100EC00000214FF4807281630284BDE8F04108463E
:100ED00070470000F0B590F820C0BCF1010F32D08F
:100EE00090F821C04FF0010EBCF1010F80F820E016
:100EF00026D14FF0020C80F821C04FF0000CC0F852
:100F000038C0D0E900C4C56AC66BDCF80070102C8C
:100F100027F00107CCF80070006C0EFA00F070604A
:100F20000846CCF8043004BF10460A46CCF8080046
:100F3000CCF80C20DCF8000045B140F00E000DE0CC
:100F4000002180F820100220F0BD00BF20F0040036
:100F5000CCF80000DCF8000040F00A00CCF80000FB
:100F6000DCF8000040F00100CCF800000020F0BDEB
:100F70002DE9F04F82B00E68002E00F0FD8041F2A6
:100F80000042C4F20102042340F2004E904208BF26
:100F900003234FF6FF7CC4F2010E009300240123CB
:100FA000C1F2100C4FF0000A4FF0000946E000BFFC
:100FB000012504F00C030F279F402BEA070705FAD1
:100FC00003F33B4342F82630D1F804B05FEACB325A
:100FD000DEF8002054BF22EA080242EA0802CEF8F6
:100FE0000020DEF804205FEA8B3354BF22EA0802B7
:100FF00042EA0802CEF804205FEACB23DEF808209C
:1010000054BF22EA080242EA08025FEA8B2340F258
:101010000C43CEF80820C4F201031A6854BF22EA38
:10102000080242EA08021A6001230E680AF1010A66
:1010300036FA0AF204F1040400F09E8003FA0AF87A
:1010400016EA080FF1D04A68624511DC122A55D819
:10105000DFE802F0340A444854545454545454546D
:1010600054545454544C5000D1F80C9046E000BFF6
:101070004FF6FF75C1F22105AA420FDC0025C1F22F
:101080001105AA421AD00025C1F21205AA4215D0B4
:101090000025C1F22105AA4210D02FE00025C1F29F
:1010A0002205AA420AD00025C1F23105AA4205D084
:1010B0000025C1F23205AA4220D100BF8A684AB198
:1010C000012A14BFC0F81480C0F810804FF008093E
:1010D00014E000BF4FF0040910E000BFCA6802F13D
:1010E00008090BE04FF0000908E000BFCA6802F1F0
:1010F000040903E0CA6802F10C0900BF2246054654
:10110000BAF1080F24BF203A04352E680F27974004
:10111000BE4309FA02F232432A60CA79D2067FF549
:1011200084AF41F21803C4F202031A684FEA9A0628
:1011300042F001021A601A6840F6000302F0010250
:101140000192019AAEF57E7252F826B0C4F2010304
:1011500098420FD040F60043C4F2010398423FF496
:1011600027AF41F20003C4F20103009D984208BF7B
:1011700002251EE700251CE702B0BDE8F08F000045
:10118000002A08BF090401617047000040F2C8103E
:10119000C2F200000068704740F2000040F2C8113F
:1011A000C2F20000C2F2000100780A681044086030
:1011B0007047000080B542F20000C4F202000168EE
:1011C00041F010010160032000F08AF80F2000F0C8
:1011D00005F800F027F8002080BD000070B540F24F
:1011E0000006C2F2000640F208013278C2F20001A5
:1011F0004FF47A730968B3FBF2F20446B1FBF2F1E3
:10120000084600F049FC0F2C4FF0010508D838B90A
:101210004FF0FF3021460022002500F035F87460C1
:10122000284670BD82B041F21800C4F20200016885
:10123000022241F001010160016801F00101019108
:101240000199416841F080514160406800F0805050
:10125000009000980420C4F20100016862F31A6152
:10126000016002B070470000002848BF704700F0DE
:101270001F01012202FA01F14EF200124009CEF2E2
:10128000000242F82010704710B54EF60C5CCEF20A
:10129000000CDCF80030C3F3022E8EF00704042C9F
:1012A00028BF0424BEF103034FF0FF3E0EFA04F4FE
:1012B00038BF0023A14399400EFA03F39A4300F08C
:1012C0000F03043B1143634409010C3300F16042F6
:1012D000B0F1FF3FC8BF02F56443197010BD0000B4
:1012E0004EF60C51CEF200010A684FF6FF031A4089
:1012F00060F30A2242F0806040F0FD7008607047A1
:1013000080B5012818D0022836D0102832D141F2F9
:101310000401C4F202010A6851F8040CC00129D585
:10132000C2F383402DA3185CD2033DD440F60012D3
:10133000C0F23D02504343E041F20400C4F2020017
:10134000C16940F202320A40B2F5817F04BF4FF416
:10135000004080BD01F44071B1F5407F1CD0B1F573
:10136000007F07D1006A49F64041800701EAE0703A
:1013700080BD00BF002080BD00F0A0F941F2040153
:10138000C4F2020109680222C1F3813102EB41017A
:10139000B0FBF1F080BD00BF50F8040C4FF22441C7
:1013A000800301EAE07080BD0A6810A3C2F34042E6
:1013B0009A5C41F20023C0F27A03B3FBF2F250438D
:1013C0000968490248BF80BD4AF6AB214000CAF611
:1013D000AA21A0FB0101480880BD00BF020304054B
:1013E000060708090A0B0C0D0E0F10100102000071
:1013F0002DE9F04182B00446007841F21C06C00796
:10140000C4F202064AD0306810F0805808D1306823
:1014100040F080503060306800F0805001900198BA
:1014200047F20007C4F200073868C00512D43868D4
:1014300040F480703860FFF7A9FE05463868C005A3
:1014400008D4FFF7A3FE401B6428F7D9032002B09D
:10145000BDE8F081706810F4407012D0616801F44A
:10146000407188420DD0706840F24042C4F242227E
:10147000012320F4407113600023C00713607160E2
:101480002AD17068616820F440700843B8F1000FF9
:10149000706003D1306820F0805030602068810790
:1014A00007D556F8181CA26821F44041114346F8AC
:1014B000181CC00604D4002002B0BDE8F08100BFB3
:1014C00056F8180CE16820F48000084346F8180C20
:1014D000002002B0BDE8F081FFF758FE054641F25A
:1014E000883700BF70688007CBD4FFF74FFE401BE2
:1014F000B8424FF00300F5D9EBE700002DE9F043C7
:1015000081B0002800F0858042F20008C4F2020891
:101510000446D8F800000D4600F0070088420CD2BF
:10152000D8F8000020F007002843C8F80000D8F8D9
:10153000000000F00700A8426BD1206841F20409C6
:101540008107C4F2020917D5410705D5D9F8001063
:1015500041F4E061C9F80010010705D5D9F8001081
:1015600041F46051C9F80010D9F80010A26821F0C8
:10157000F0011143C9F80010C00741D1D8F80000AC
:1015800000F00700A8420CD9D8F8000020F00700AE
:101590002843C8F80000D8F8000000F00700A8426F
:1015A00037D12068410707D5D9F80010E26821F447
:1015B000E0611143C9F80010000708D5D9F8000010
:1015C000216920F4605040EAC100C9F80000D9F850
:1015D000002002F00C00082841F20020C0F27A003E
:1015E00050D142F2E813C2F38341C0F60003595CC4
:1015F000D2033BD440F60010C0F23D00484341E026
:10160000606802280AD001282AD159F8041C8903ED
:1016100008D4012001B0BDE8F08300BF59F8041CD4
:101620008901F6D5D9F8001021F003010843C9F863
:101630000000FFF7ABFD064641F28837D9F80000FD
:10164000616800F00C00B0EB810F97D0FFF79EFDB2
:10165000801BB842F2D9032001B0BDE8F08300BF7F
:1016600059F8041C8907D4D5DCE700BFD9F800205D
:1016700042F2CE13C2F34042C0F600039A5C4843E4
:10168000B0FBF2F0D9F8001042F2D012C1F303110E
:10169000C0F60002515C40F2080220FA01F140F26B
:1016A0000400C2F200000068C2F200021160FFF7FD
:1016B00095FD002001B0BDE8F083000040F2080075
:1016C00041F20401C2F20000C4F20201006809689C
:1016D00042F2E012C1F3C221C0F60002515CC840E0
:1016E000704700002DE9F04182B0002868D0044620
:1016F000007841F20006C007C4F2020625D07068E7
:1017000000F00C0004281BD0706800F00C000828C2
:1017100002D17068C00313D46068002800F06881AB
:10172000B0F5A02F00F07C81B0F5803F00F07C8107
:10173000306820F480303060306820F4802076E11A
:101740003068800301D56068D0B32078800718D551
:10175000706810F00C0F07D0706800F00C000828BB
:101760006ED17068C0036BD43068800702D52069E1
:10177000012825D13068616920F0F80040EAC100F5
:101780003060207800071FD42078400732D4E56904
:1017900095B1706800F00C00082840F08F80012D92
:1017A0000ED07068216A00F480328A4208D1616AE2
:1017B00000F47010884203D1002002B0BDE8F0812F
:1017C000012002B0BDE8F081A069002862D00020AD
:1017D000C4F242200121C0F88014FFF7D7FC05466F
:1017E000706A800700F18C80FFF7D0FC401B022854
:1017F000F6D92AE1F06910F0805808D1F06940F07C
:101800008050F061F06900F080500090009847F23D
:101810000007C4F200073868C00529D4386840F4CE
:1018200080703860FFF7B2FC054600BF3868C0051D
:101830001ED4FFF7ABFC401B6428F7D905E100BFBD
:101840002069002840F20000C4F2422000F08280AB
:1018500001210160FFF79AFC054600BF3068800750
:101860003FF588AFFFF792FC401B0228F6D9ECE069
:10187000E068002800F08080052800F097800128AB
:1018800000F09880306A20F001003062306A20F069
:10189000040092E00020C4F242200021C0F880142D
:1018A000FFF774FC054600BF706A80077FF56CAFD8
:1018B000FFF76CFC401B0228F6D9C6E00027C4F2F3
:1018C000422700203866FFF761FC022D05460BD148
:1018D0003068800140F1BE80FFF758FC401B0228B1
:1018E0004FF00300F4D968E7306880017FF564AFFA
:1018F000FFF74CFC401B02284FF00300F4D95CE7D3
:1019000040F20800C2F20000006844F6D351C1F270
:101910006201A0FB0101480A019000BF00BF0198CD
:10192000411E002801913FF42FAF00BF0198411ED6
:10193000002801913FF428AF00BF0198411E002804
:1019400001913FF421AF00BF0198411E0028019191
:10195000E4D119E700210160FFF718FC054600BF3C
:10196000306880077FF50DAFFFF710FC401B0228A1
:101970004FF00300F4D920E7306A20F00100306214
:10198000306A20F004003062FFF700FC054641F2A7
:10199000883700BF306A800720D5FFF7F7FB401B70
:1019A000B8424FF00300F5D907E700BF306A40F0B6
:1019B00004003062306A40F001003062FFF7E6FB5D
:1019C000054641F2883700BF306A800706D4FFF72A
:1019D000DDFB401BB842F7D937E000BFB8F1000F7C
:1019E0007FF4D5AEF06920F08050F061CFE600BF03
:1019F000306820F480303060306820F4802030601F
:101A0000FFF7C4FB054600BF306880037FF59DAE3D
:101A1000FFF7BCFB401B64284FF00300F4D9CCE671
:101A2000306840F480203060306840F480303060AE
:101A3000FFF7ACFB054600BF306880033FF585AE7D
:101A4000FFF7A4FB401B6428F6D9032002B0BDE8D1
:101A5000F08100BF206AB0F5803F05D17168A268AF
:101A600021F40031114371607168626A21F47411CC
:101A700010430843706001203866FFF787FB044677
:101A8000306880013FF598AEFFF780FB001B02280D
:101A90004FF00300F4D990E6411E0020B0EB116F27
:101AA0001CBF012070474EF21002CEF200025160BE
:101AB0004EF62351CEF20001F0230B700721906007
:101AC0001160704710B590F83C20012A4FF00202D7
:101AD00033D080F83D200268D2F804E0D2F808C084
:101AE0000C682EF07003234340F2FF74C4F200042C
:101AF000A24253600ADCB2F1804F13D040F200439F
:101B0000C4F200039A420DD011E000BF42F6004338
:101B1000C4F201039A4205D040F60003C4F2000368
:101B20009A4204D149682CF0800319439160012145
:101B3000002280F83D1080F83C20104610BD0000C7
:101B4000002804BF0120704710B5044690F83D00FE
:101B500028B9002084F83C00204600F067F80220F5
:101B600084F83D00206840F2FF730268C4F200036D
:101B700042F6004C9842C4F2010C15DCB0F1804FE3
:101B80001AD040F20041C4F20001884214D09842B9
:101B900018DCB0F1804F1DD040F20041C4F20001CA
:101BA000884217D01AE000BF604505D040F600011A
:101BB000C4F200018842EAD1A16822F070020A430F
:101BC0009842E6DD604505D040F60001C4F2000110
:101BD000884203D1216922F440720A43A36922F0AA
:101BE0008001D4F804E0E268194360450160C262F4
:101BF000C0F828E002D16169CCF8301001214161C0
:101C0000002084F8461084F83E1084F83F1084F8D1
:101C1000401084F8411084F8421084F8431084F88E
:101C2000441084F8451084F83D1010BD81B0006860
:101C300040F60001C4F20001884201D001B07047B3
:101C400041F21C00C4F20200016841F0040101608D
:101C5000006800F004000090009801B07047000098
:101C600090F83D1001291CBF01207047022180F827
:101C70003D10006840F2FF72C168C4F20002904259
:101C800041F00101C16009DCB0F1804F12D040F297
:101C90000041C4F2000188420CD012E042F600413B
:101CA000C4F20101884205D040F60001C4F20001EF
:101CB000884206D1816801F00701062904BF00208F
:101CC0007047016841F00101016000207047000089
:101CD00080B590F83C20012A4FF0020200F0BF804E
:101CE00080F83D20D0F800C04FF67772DCF808305D
:101CF00023EA0202CCF808200B683F2B1CDD5F2B87
:101D000020DD602B50D0B3F5005F6DD0702B40F01C
:101D1000A080D1E901E3C968DCF8082043EA0E039A
:101D200022F47F4243EA01211143CCF80810DCF889
:101D3000081041F077018AE01F2B29DC63B3102BD8
:101D40002AD086E0402B63D0502B40F08280D1F81F
:101D500004E0C968DCF82030DCF8202022F0010221
:101D6000CCF82020DCF8182022F0F00242EA011121
:101D700023F00A0242EA0E02CCF81810CCF8202018
:101D8000DCF8081041F0570121F020015FE000BFAE
:101D9000202B01D0302B5CD1DCF8081021F0700131
:101DA000194341F0070152E0D1F804E0C968DCF8BA
:101DB000203023F01003CCF82030DCF81830DCF8A9
:101DC000202023F4704322F0A00243EA013142EACA
:101DD0000E12CCF81810CCF82020DCF8081041F0D6
:101DE000670121F0100132E0D1E901E3C968DCF8B4
:101DF000082043EA0E0322F47F4243EA0121114303
:101E0000CCF80810DCF8081041F480411FE000BF56
:101E1000D1F804E0C968DCF82030DCF8202022F09A
:101E20000102CCF82020DCF8182022F0F00242EA6F
:101E3000011123F00A0242EA0E02CCF81810CCF885
:101E40002020DCF8081041F0470121F03001CCF8E7
:101E500008100121002280F83D1080F83C20104637
:101E600080BD0000FEE70000FEE70000FEE7000086
:101E70007047000070470000FFF78EB97047000000
:101E8000FEE7000094B0FFF795F900240120CDE9AA
:101E90000F44CDE90D440A900E904FF4E0104FF43A
:101EA0008031022513900AA80894CDE90644CDE9B3
:101EB0000444CDE90244CDE90044CDE90B14CDE959
:101EC0001151FFF70FFC28B1EFF3108072B600BF7D
:101ED000FEE700BF0F20CDE904054FF48060CDE997
:101EE000070404A802210694FFF708FB20B1EFF3D2
:101EF000108072B6FEE700BF4FF400400226029049
:101F000068460096FFF774FA20B1EFF3108072B6BE
:101F1000FEE700BF41F21807C4F20207386840F636
:101F2000004A40F0100038603868C4F2010A00F03E
:101F300010000A900A983868202140F0200038608C
:101F40003868002200F020000A900A98386820249F
:101F500040F0040038603868002500F004000A9062
:101F60000A98386840F008003860386800F00800C7
:101F70000A900A985046FFF703F90A9401240AA927
:101F80005046CDE90B460D96FEF7F2FF57F8040CCC
:101F9000002140F0010047F8040C57F8040C00221F
:101FA00000F001000A900A980B20FFF76DF90B2052
:101FB000FFF75AF940F2E406C2F200060AF5C051F2
:101FC000304640F8281F4FF480714FF46022C0E97A
:101FD0000151042104730575C2610161FEF750FBD4
:101FE00020B1EFF3108072B6FEE700BF05200AA90A
:101FF00031C106F128050AA92846FEF77FFA28B163
:10200000EFF3108072B600BFFEE700BF06200A9013
:1020100002200B900AA92846FEF770FA20B1EFF3D0
:10202000108072B6FEE700BF07200A9003200B90D5
:102030000AA92846FEF762FA20B1EFF3108072B6C3
:10204000FEE700BF10200A9004200B900AA9284642
:10205000FEF754FA20B1EFF3108072B6FEE700BF2E
:1020600040F27009C2F20009AAF52841484640F83A
:102070004C1F092100244FF400324FF44013C0E9F3
:102080000114C0E90342C0E905348483FEF718FD5A
:1020900020B1EFF3108072B6FEE700BF01204FF6CB
:1020A000FF7109F14C08C6E90014C6E90640C6E90B
:1020B000080440463146C6E90244C6E90444FEF736
:1020C00089FC28B1EFF3108072B600BFFEE700BFB5
:1020D0004046FEF7BDFD18B1EFF3108072B6FEE783
:1020E00040460321FEF75EFC20B1EFF3108072B68C
:1020F000FEE700BF40F280100021AAF58232C2F252
:10210000000048F69F4301260D91CDE90B11CDE962
:102110000411C0E90023C0E9021601618161FFF7E3
:102120000FFD18B1EFF3108072B6FEE74FF4805048
:102130000A9040F28010C2F200000AA9FFF7C8FD21
:1021400020B1EFF3108072B6FEE700BF0020CDE9AA
:10215000040040F28010C2F2000004A9FFF7B2FCB4
:1021600020B1EFF3108072B6FEE700BF40F280109E
:10217000C2F20000FFF774FD2846FEF733F909F1BB
:10218000240128460422FEF781FB786840F00070A5
:102190007860786800F000700A900A98D9F8180002
:1021A000D9F81C00D9F82000D9F81800D9F81C007B
:1021B000D9F82000D9F81800D9F81C00D9F8200067
:1021C000D9F81800D9F81C00D9F82000E6E7010278
:1021D00000000000000000000102030406070809D7
:1021E00000000000010203040203040506070809B9
:1021F0000A0B0C0D0E0F1010182200080000002012
:10220000100000002801000828220008100000200B
:10221000C007000044010008010000001000000099
:082220000024F400000000009E
:04000005080000ED02
:00000001FF
